:03000000020125D5
:0C012500787FE4F6D8FD75812002016CA3
:0A0237003F065B4F666D7D077F6F89
:0E022800010B14010C19010A00C100010900AC
:07024100AE071FEE70FA2268
:1001B100E50B75F00A8490023793F58075A0017FF5
:1001C10064120241E4F580E50B75F00A84E5F093D1
:1001D100F58075A0027F64120241E4F580E50C759B
:1001E100F00A8493F58075A0047F64120241E4F55E
:1001F10080E50C75F00A84E5F093F58075A0087F21
:0802010064120241E4F58022C1
:1000030053890F438910758BB0758D3CD28ED2AB5B
:03001300D2AF2247
:10020900E4F590D290D29312000320A70D7F0A1231
:0F021900024120A705D20030A7FD1201B180EBF2
:03001B0002001EC2
:04001E00C0E0C0D0AE
:10002200758BB0758D3C0508E508640A6003020112
:1000320020F508E509D39400400515090201203096
:10004200001BE50AC39414400CE50A941A400EE51D
:100052000A942E5008750909C200020120150B15D9
:100062000C050AE50AB4141920B00C750A0F750BB9
:1000720005750C0A020120C293D294750B05020188
:1000820020E50AB41505C294020120E50AB416055A
:10009200D294020120E50AB41705C294020120E5B8
:1000A2000AB41804D2948076E50AB41904C2948082
:1000B2006DE50AB41A0EC290D292D295750B1975DB
:1000C2000C14805AE50AB42E1420B008750A29755A
:1000D2000B0A8004C292D291750C058041E50AB4E4
:1000E2002F04C2918038E50AB43004D291802FE502
:1000F2000AB43104C2918026E50AB43204D2918056
:100102001DE50AB43304C2918014E50AB4340FD257
:0E01120090D293C295750B14750C19750A00E6
:05012000D0D0D0E03258
:10013100020209E493A3F8E493A34003F68001F2D9
:1001410008DFF48029E493A3F85407240CC8C333CF
:10015100C4540F4420C8834004F456800146F6DF9E
:10016100E4800B0102040810204080900228E47E04
:10017100019360BCA3FF543F30E509541FFEE49393
:10018100A360010ECF54C025E060A840B8E493A35A
:10019100FAE493A3F8E493A3C8C582C8CAC583CA85
:1001A100F0A3C8C582C8CAC583CADFE9DEE780BE3D
:0102360000C7
:00000001FF
